{
  "address": "0x4f27e229955ec6409fe8a0ebe9ba73F40bddC52A",
  "abi": [
    {
      "inputs": [
        {
          "internalType": "address",
          "name": "_tokenX",
          "type": "address"
        },
        {
          "internalType": "address",
          "name": "_tokenA",
          "type": "address"
        },
        {
          "internalType": "address",
          "name": "_oracle",
          "type": "address"
        },
        {
          "internalType": "uint256",
          "name": "_monthlyRate",
          "type": "uint256"
        }
      ],
      "stateMutability": "nonpayable",
      "type": "constructor"
    },
    {
      "anonymous": false,
      "inputs": [
        {
          "indexed": true,
          "internalType": "address",
          "name": "borrower",
          "type": "address"
        },
        {
          "indexed": true,
          "internalType": "address",
          "name": "lender",
          "type": "address"
        },
        {
          "indexed": false,
          "internalType": "uint256",
          "name": "amountX",
          "type": "uint256"
        },
        {
          "indexed": false,
          "internalType": "uint256",
          "name": "timestamp",
          "type": "uint256"
        }
      ],
      "name": "acceptRequest",
      "type": "event"
    },
    {
      "anonymous": false,
      "inputs": [
        {
          "indexed": false,
          "internalType": "address",
          "name": "borrower",
          "type": "address"
        },
        {
          "indexed": false,
          "internalType": "uint256",
          "name": "amount",
          "type": "uint256"
        },
        {
          "indexed": false,
          "internalType": "uint256",
          "name": "timestamp",
          "type": "uint256"
        }
      ],
      "name": "interestPaid",
      "type": "event"
    },
    {
      "anonymous": false,
      "inputs": [
        {
          "indexed": true,
          "internalType": "address",
          "name": "borrower",
          "type": "address"
        },
        {
          "indexed": false,
          "internalType": "uint256",
          "name": "amountA",
          "type": "uint256"
        },
        {
          "indexed": false,
          "internalType": "uint256",
          "name": "timestamp",
          "type": "uint256"
        }
      ],
      "name": "placedRequest",
      "type": "event"
    },
    {
      "anonymous": false,
      "inputs": [
        {
          "indexed": true,
          "internalType": "address",
          "name": "borrower",
          "type": "address"
        },
        {
          "indexed": true,
          "internalType": "address",
          "name": "lender",
          "type": "address"
        },
        {
          "indexed": false,
          "internalType": "uint256",
          "name": "amountX",
          "type": "uint256"
        },
        {
          "indexed": false,
          "internalType": "uint256",
          "name": "amountA",
          "type": "uint256"
        },
        {
          "indexed": false,
          "internalType": "uint256",
          "name": "timestamp",
          "type": "uint256"
        }
      ],
      "name": "resolveRequestEnoughtFunds",
      "type": "event"
    },
    {
      "anonymous": false,
      "inputs": [
        {
          "indexed": true,
          "internalType": "address",
          "name": "borrower",
          "type": "address"
        },
        {
          "indexed": true,
          "internalType": "address",
          "name": "lender",
          "type": "address"
        },
        {
          "indexed": false,
          "internalType": "uint256",
          "name": "amountX",
          "type": "uint256"
        },
        {
          "indexed": false,
          "internalType": "uint256",
          "name": "amountA",
          "type": "uint256"
        },
        {
          "indexed": false,
          "internalType": "uint256",
          "name": "timestamp",
          "type": "uint256"
        }
      ],
      "name": "resolveRequestNotEnoughtFunds",
      "type": "event"
    },
    {
      "anonymous": false,
      "inputs": [
        {
          "indexed": true,
          "internalType": "address",
          "name": "borrower",
          "type": "address"
        },
        {
          "indexed": false,
          "internalType": "uint256",
          "name": "timestamp",
          "type": "uint256"
        }
      ],
      "name": "retiredRequest",
      "type": "event"
    },
    {
      "inputs": [
        {
          "internalType": "address",
          "name": "borrower",
          "type": "address"
        }
      ],
      "name": "acceptBorrowRequest",
      "outputs": [],
      "stateMutability": "nonpayable",
      "type": "function"
    },
    {
      "inputs": [
        {
          "internalType": "address",
          "name": "",
          "type": "address"
        }
      ],
      "name": "ledger",
      "outputs": [
        {
          "internalType": "uint256",
          "name": "amountTokenA",
          "type": "uint256"
        },
        {
          "internalType": "uint256",
          "name": "amountTokenX",
          "type": "uint256"
        },
        {
          "internalType": "uint256",
          "name": "period",
          "type": "uint256"
        },
        {
          "internalType": "uint256",
          "name": "timestamp",
          "type": "uint256"
        },
        {
          "internalType": "address",
          "name": "lender",
          "type": "address"
        }
      ],
      "stateMutability": "view",
      "type": "function"
    },
    {
      "inputs": [],
      "name": "monthlyRate",
      "outputs": [
        {
          "internalType": "uint256",
          "name": "",
          "type": "uint256"
        }
      ],
      "stateMutability": "view",
      "type": "function"
    },
    {
      "inputs": [],
      "name": "oracle",
      "outputs": [
        {
          "internalType": "address",
          "name": "",
          "type": "address"
        }
      ],
      "stateMutability": "view",
      "type": "function"
    },
    {
      "inputs": [],
      "name": "payCurrentInterest",
      "outputs": [],
      "stateMutability": "nonpayable",
      "type": "function"
    },
    {
      "inputs": [
        {
          "internalType": "uint256",
          "name": "amountTokenA",
          "type": "uint256"
        },
        {
          "internalType": "uint256",
          "name": "period",
          "type": "uint256"
        }
      ],
      "name": "placeBorrowRequest",
      "outputs": [],
      "stateMutability": "nonpayable",
      "type": "function"
    },
    {
      "inputs": [
        {
          "internalType": "address",
          "name": "borrower",
          "type": "address"
        }
      ],
      "name": "resolveRequest",
      "outputs": [],
      "stateMutability": "nonpayable",
      "type": "function"
    },
    {
      "inputs": [],
      "name": "retireRequest",
      "outputs": [],
      "stateMutability": "nonpayable",
      "type": "function"
    },
    {
      "inputs": [],
      "name": "tokenA",
      "outputs": [
        {
          "internalType": "address",
          "name": "",
          "type": "address"
        }
      ],
      "stateMutability": "view",
      "type": "function"
    },
    {
      "inputs": [],
      "name": "tokenX",
      "outputs": [
        {
          "internalType": "address",
          "name": "",
          "type": "address"
        }
      ],
      "stateMutability": "view",
      "type": "function"
    }
  ],
  "transactionHash": "0x3ad387643f82c993fe5672d863d16d1eaff4831946333b387d7ea322f76e8876",
  "args": [
    "0xe1baC829F2F7485D24C8CC5909382a484Cd8bA6d",
    "0x78E9dBA6cBf1846308C9e5628938eAB84e509DE9",
    "0x02C8EdC9c4E4edf682a3E737383438B991756573",
    500
  ],
  "numDeployments": 2,
  "solcInputHash": "4d3869d70b82c1202f3575d4c9d2e320",
  "bytecode": "0x60806040523480156200001157600080fd5b5060405162002d7938038062002d798339818101604052810190620000379190620001af565b836000806101000a81548173ffffffffffffffffffffffffffffffffffffffff021916908373ffffffffffffffffffffffffffffffffffffffff16021790555082600160006101000a81548173ffffffffffffffffffffffffffffffffffffffff021916908373ffffffffffffffffffffffffffffffffffffffff16021790555081600260006101000a81548173ffffffffffffffffffffffffffffffffffffffff021916908373ffffffffffffffffffffffffffffffffffffffff160217905550806003819055505050505062000221565b600080fd5b600073ffffffffffffffffffffffffffffffffffffffff82169050919050565b60006200013c826200010f565b9050919050565b6200014e816200012f565b81146200015a57600080fd5b50565b6000815190506200016e8162000143565b92915050565b6000819050919050565b620001898162000174565b81146200019557600080fd5b50565b600081519050620001a9816200017e565b92915050565b60008060008060808587031215620001cc57620001cb6200010a565b5b6000620001dc878288016200015d565b9450506020620001ef878288016200015d565b935050604062000202878288016200015d565b9250506060620002158782880162000198565b91505092959194509250565b612b4880620002316000396000f3fe608060405234801561001057600080fd5b506004361061009e5760003560e01c80637dc0d1d0116100665780637dc0d1d01461012357806381ac2da71461014157806388d0ac121461015d5780639800144e14610167578063fbfa941f146101835761009e565b80630d311bdb146100a35780630fc63d10146100bf57806316dc165b146100dd57806349cdd3e6146100fb5780636ba3381a14610105575b600080fd5b6100bd60048036038101906100b89190611d28565b6101b7565b005b6100c7610bba565b6040516100d49190611d64565b60405180910390f35b6100e5610be0565b6040516100f29190611d64565b60405180910390f35b610103610c04565b005b61010d610f4c565b60405161011a9190611d98565b60405180910390f35b61012b610f52565b6040516101389190611d64565b60405180910390f35b61015b60048036038101906101569190611ddf565b610f78565b005b610165611288565b005b610181600480360381019061017c9190611d28565b611610565b005b61019d60048036038101906101989190611d28565b611ae3565b6040516101ae959493929190611e1f565b60405180910390f35b6000600460008373ffffffffffffffffffffffffffffffffffffffff1673ffffffffffffffffffffffffffffffffffffffff1681526020019081526020016000206040518060a0016040529081600082015481526020016001820154815260200160028201548152602001600382015481526020016004820160009054906101000a900473ffffffffffffffffffffffffffffffffffffffff1673ffffffffffffffffffffffffffffffffffffffff1673ffffffffffffffffffffffffffffffffffffffff1681525050905060008160000151116102ca576040517f08c379a00000000000000000000000000000000000000000000000000000000081526004016102c190611ecf565b60405180910390fd5b600073ffffffffffffffffffffffffffffffffffffffff16816080015173ffffffffffffffffffffffffffffffffffffffff16141561033e576040517f08c379a000000000000000000000000000000000000000000000000000000000815260040161033590611f61565b60405180910390fd5b42816060015182604001516103539190611fb0565b1115610394576040517f08c379a000000000000000000000000000000000000000000000000000000000815260040161038b90612078565b60405180910390fd5b60006002612710601e620151806103ab9190612098565b6103b59190612098565b6103bf9190612098565b600354836040015184602001516103d69190612098565b6103e09190612098565b6103ea9190612121565b600283602001516103fb9190612121565b6104059190611fb0565b90508060008054906101000a900473ffffffffffffffffffffffffffffffffffffffff1673ffffffffffffffffffffffffffffffffffffffff166370a08231856040518263ffffffff1660e01b81526004016104619190611d64565b60206040518083038186803b15801561047957600080fd5b505afa15801561048d573d6000803e3d6000fd5b505050506040513d601f19601f820116820180604052508101906104b19190612167565b1015801561056957508060008054906101000a900473ffffffffffffffffffffffffffffffffffffffff1673ffffffffffffffffffffffffffffffffffffffff1663dd62ed3e85306040518363ffffffff1660e01b8152600401610516929190612194565b60206040518083038186803b15801561052e57600080fd5b505afa158015610542573d6000803e3d6000fd5b505050506040513d601f19601f820116820180604052508101906105669190612167565b10155b156108ea5760008054906101000a900473ffffffffffffffffffffffffffffffffffffffff1673ffffffffffffffffffffffffffffffffffffffff166323b872dd8430846040518463ffffffff1660e01b81526004016105cb939291906121bd565b602060405180830381600087803b1580156105e557600080fd5b505af11580156105f9573d6000803e3d6000fd5b505050506040513d601f19601f8201168201806040525081019061061d919061222c565b61065c576040517f08c379a0000000000000000000000000000000000000000000000000000000008152600401610653906122cb565b60405180910390fd5b60008054906101000a900473ffffffffffffffffffffffffffffffffffffffff1673ffffffffffffffffffffffffffffffffffffffff1663a9059cbb8360800151600285602001516106ae9190612121565b846106b99190611fb0565b6040518363ffffffff1660e01b81526004016106d69291906122eb565b602060405180830381600087803b1580156106f057600080fd5b505af1158015610704573d6000803e3d6000fd5b505050506040513d601f19601f82011682018060405250810190610728919061222c565b610767576040517f08c379a000000000000000000000000000000000000000000000000000000000815260040161075e90612386565b60405180910390fd5b600160009054906101000a900473ffffffffffffffffffffffffffffffffffffffff1673ffffffffffffffffffffffffffffffffffffffff1663a9059cbb8484600001516040518363ffffffff1660e01b81526004016107c89291906122eb565b602060405180830381600087803b1580156107e257600080fd5b505af11580156107f6573d6000803e3d6000fd5b505050506040513d601f19601f8201168201806040525081019061081a919061222c565b610859576040517f08c379a000000000000000000000000000000000000000000000000000000000815260040161085090612418565b60405180910390fd5b816080015173ffffffffffffffffffffffffffffffffffffffff168373ffffffffffffffffffffffffffffffffffffffff167fbd40ff2583c036ca3345484293e58f52a98d091d37cd5c12b0ef44abd28ed464600285602001516108bd9190612121565b846108c89190611fb0565b8560000151426040516108dd93929190612438565b60405180910390a3610b6d565b600160009054906101000a900473ffffffffffffffffffffffffffffffffffffffff1673ffffffffffffffffffffffffffffffffffffffff1663a9059cbb836080015184600001516040518363ffffffff1660e01b815260040161094f9291906122eb565b602060405180830381600087803b15801561096957600080fd5b505af115801561097d573d6000803e3d6000fd5b505050506040513d601f19601f820116820180604052508101906109a1919061222c565b6109e0576040517f08c379a00000000000000000000000000000000000000000000000000000000081526004016109d7906124e1565b60405180910390fd5b60008054906101000a900473ffffffffffffffffffffffffffffffffffffffff1673ffffffffffffffffffffffffffffffffffffffff1663a9059cbb836080015160028560200151610a329190612121565b6040518363ffffffff1660e01b8152600401610a4f9291906122eb565b602060405180830381600087803b158015610a6957600080fd5b505af1158015610a7d573d6000803e3d6000fd5b505050506040513d601f19601f82011682018060405250810190610aa1919061222c565b610ae0576040517f08c379a0000000000000000000000000000000000000000000000000000000008152600401610ad790612573565b60405180910390fd5b816080015173ffffffffffffffffffffffffffffffffffffffff168373ffffffffffffffffffffffffffffffffffffffff167ff604bd52d7995608d01d8eb2f71e7c5fdf3ca4615e7b5e1b149e061c7f0ece1660028560200151610b449190612121565b84610b4f9190611fb0565b856000015142604051610b6493929190612438565b60405180910390a35b6000600460008573ffffffffffffffffffffffffffffffffffffffff1673ffffffffffffffffffffffffffffffffffffffff16815260200190815260200160002060000181905550505050565b600160009054906101000a900473ffffffffffffffffffffffffffffffffffffffff1681565b60008054906101000a900473ffffffffffffffffffffffffffffffffffffffff1681565b600060046000610c12611b39565b73ffffffffffffffffffffffffffffffffffffffff1673ffffffffffffffffffffffffffffffffffffffff1681526020019081526020016000206000015411610c90576040517f08c379a0000000000000000000000000000000000000000000000000000000008152600401610c8790611ecf565b60405180910390fd5b600073ffffffffffffffffffffffffffffffffffffffff1660046000610cb4611b39565b73ffffffffffffffffffffffffffffffffffffffff1673ffffffffffffffffffffffffffffffffffffffff16815260200190815260200160002060040160009054906101000a900473ffffffffffffffffffffffffffffffffffffffff1673ffffffffffffffffffffffffffffffffffffffff1614610d68576040517f08c379a0000000000000000000000000000000000000000000000000000000008152600401610d5f90612605565b60405180910390fd5b600160009054906101000a900473ffffffffffffffffffffffffffffffffffffffff1673ffffffffffffffffffffffffffffffffffffffff1663a9059cbb610dae611b39565b60046000610dba611b39565b73ffffffffffffffffffffffffffffffffffffffff1673ffffffffffffffffffffffffffffffffffffffff168152602001908152602001600020600001546040518363ffffffff1660e01b8152600401610e159291906122eb565b602060405180830381600087803b158015610e2f57600080fd5b505af1158015610e43573d6000803e3d6000fd5b505050506040513d601f19601f82011682018060405250810190610e67919061222c565b610ea6576040517f08c379a0000000000000000000000000000000000000000000000000000000008152600401610e9d906122cb565b60405180910390fd5b600060046000610eb4611b39565b73ffffffffffffffffffffffffffffffffffffffff1673ffffffffffffffffffffffffffffffffffffffff16815260200190815260200160002060000181905550610efd611b39565b73ffffffffffffffffffffffffffffffffffffffff167fffdf63c1ba62ab5efdd93c7264f6ed3784d13055a1df98b97fe13c5df0f3f0ce42604051610f429190611d98565b60405180910390a2565b60035481565b600260009054906101000a900473ffffffffffffffffffffffffffffffffffffffff1681565b64e8d4a51000821015610fc0576040517f08c379a0000000000000000000000000000000000000000000000000000000008152600401610fb790612697565b60405180910390fd5b600060046000610fce611b39565b73ffffffffffffffffffffffffffffffffffffffff1673ffffffffffffffffffffffffffffffffffffffff168152602001908152602001600020600001541461104c576040517f08c379a000000000000000000000000000000000000000000000000000000000815260040161104390612729565b60405180910390fd5b8160046000611059611b39565b73ffffffffffffffffffffffffffffffffffffffff1673ffffffffffffffffffffffffffffffffffffffff1681526020019081526020016000206000018190555080600460006110a7611b39565b73ffffffffffffffffffffffffffffffffffffffff1673ffffffffffffffffffffffffffffffffffffffff1681526020019081526020016000206002018190555042600460006110f5611b39565b73ffffffffffffffffffffffffffffffffffffffff1673ffffffffffffffffffffffffffffffffffffffff16815260200190815260200160002060030181905550600160009054906101000a900473ffffffffffffffffffffffffffffffffffffffff1673ffffffffffffffffffffffffffffffffffffffff166323b872dd61117c611b39565b30856040518463ffffffff1660e01b815260040161119c939291906121bd565b602060405180830381600087803b1580156111b657600080fd5b505af11580156111ca573d6000803e3d6000fd5b505050506040513d601f19601f820116820180604052508101906111ee919061222c565b61122d576040517f08c379a0000000000000000000000000000000000000000000000000000000008152600401611224906122cb565b60405180910390fd5b611235611b39565b73ffffffffffffffffffffffffffffffffffffffff167f8f27e3ca1f79971b65ac0471245707ffc96f2e41cb9a3b15abae03aadda9d48a834260405161127c929190612749565b60405180910390a25050565b600060046000611296611b39565b73ffffffffffffffffffffffffffffffffffffffff1673ffffffffffffffffffffffffffffffffffffffff1681526020019081526020016000206040518060a0016040529081600082015481526020016001820154815260200160028201548152602001600382015481526020016004820160009054906101000a900473ffffffffffffffffffffffffffffffffffffffff1673ffffffffffffffffffffffffffffffffffffffff1673ffffffffffffffffffffffffffffffffffffffff1681525050905060008160000151116113a2576040517f08c379a000000000000000000000000000000000000000000000000000000000815260040161139990611ecf565b60405180910390fd5b600073ffffffffffffffffffffffffffffffffffffffff16816080015173ffffffffffffffffffffffffffffffffffffffff161415611416576040517f08c379a000000000000000000000000000000000000000000000000000000000815260040161140d90611f61565b60405180910390fd5b428160600151826040015161142b9190611fb0565b1161146b576040517f08c379a0000000000000000000000000000000000000000000000000000000008152600401611462906127e4565b60405180910390fd5b60006002612710601e620151806114829190612098565b61148c9190612098565b6114969190612098565b600354836040015184602001516114ad9190612098565b6114b79190612098565b6114c19190612121565b905060008054906101000a900473ffffffffffffffffffffffffffffffffffffffff1673ffffffffffffffffffffffffffffffffffffffff166323b872dd611507611b39565b8460800151846040518463ffffffff1660e01b815260040161152b939291906121bd565b602060405180830381600087803b15801561154557600080fd5b505af1158015611559573d6000803e3d6000fd5b505050506040513d601f19601f8201168201806040525081019061157d919061222c565b6115bc576040517f08c379a00000000000000000000000000000000000000000000000000000000081526004016115b3906122cb565b60405180910390fd5b428260600181815250507f10e2fa74c22c6ab163cebcf116255851aeb2f5079789fd8b7f9bd94eb10320756115ef611b39565b82846060015160405161160493929190612804565b60405180910390a15050565b6000600460008373ffffffffffffffffffffffffffffffffffffffff1673ffffffffffffffffffffffffffffffffffffffff1681526020019081526020016000206000015411611695576040517f08c379a000000000000000000000000000000000000000000000000000000000815260040161168c90611ecf565b60405180910390fd5b600073ffffffffffffffffffffffffffffffffffffffff16600460008373ffffffffffffffffffffffffffffffffffffffff1673ffffffffffffffffffffffffffffffffffffffff16815260200190815260200160002060040160009054906101000a900473ffffffffffffffffffffffffffffffffffffffff1673ffffffffffffffffffffffffffffffffffffffff1614611766576040517f08c379a000000000000000000000000000000000000000000000000000000000815260040161175d90612605565b60405180910390fd5b60006117b3600460008473ffffffffffffffffffffffffffffffffffffffff1673ffffffffffffffffffffffffffffffffffffffff16815260200190815260200160002060000154611b41565b905080600460008473ffffffffffffffffffffffffffffffffffffffff1673ffffffffffffffffffffffffffffffffffffffff16815260200190815260200160002060010181905550611804611b39565b600460008473ffffffffffffffffffffffffffffffffffffffff1673ffffffffffffffffffffffffffffffffffffffff16815260200190815260200160002060040160006101000a81548173ffffffffffffffffffffffffffffffffffffffff021916908373ffffffffffffffffffffffffffffffffffffffff16021790555060008054906101000a900473ffffffffffffffffffffffffffffffffffffffff1673ffffffffffffffffffffffffffffffffffffffff166323b872dd6118c8611b39565b30846040518463ffffffff1660e01b81526004016118e8939291906121bd565b602060405180830381600087803b15801561190257600080fd5b505af1158015611916573d6000803e3d6000fd5b505050506040513d601f19601f8201168201806040525081019061193a919061222c565b611979576040517f08c379a0000000000000000000000000000000000000000000000000000000008152600401611970906122cb565b60405180910390fd5b60008054906101000a900473ffffffffffffffffffffffffffffffffffffffff1673ffffffffffffffffffffffffffffffffffffffff1663a9059cbb836002846119c39190612121565b6040518363ffffffff1660e01b81526004016119e09291906122eb565b602060405180830381600087803b1580156119fa57600080fd5b505af1158015611a0e573d6000803e3d6000fd5b505050506040513d601f19601f82011682018060405250810190611a32919061222c565b611a71576040517f08c379a0000000000000000000000000000000000000000000000000000000008152600401611a6890612386565b60405180910390fd5b611a79611b39565b73ffffffffffffffffffffffffffffffffffffffff168273ffffffffffffffffffffffffffffffffffffffff167fc19addecb88d879c36400a3ff22a56383a98f57578912f5f4c73cc81ccaae5478342604051611ad7929190612749565b60405180910390a35050565b60046020528060005260406000206000915090508060000154908060010154908060020154908060030154908060040160009054906101000a900473ffffffffffffffffffffffffffffffffffffffff16905085565b600033905090565b600080600260009054906101000a900473ffffffffffffffffffffffffffffffffffffffff1673ffffffffffffffffffffffffffffffffffffffff1663feaf968c6040518163ffffffff1660e01b815260040160a060405180830381600087803b158015611bae57600080fd5b505af1158015611bc2573d6000803e3d6000fd5b505050506040513d601f19601f82011682018060405250810190611be691906128b3565b5050509150506000600260009054906101000a900473ffffffffffffffffffffffffffffffffffffffff1673ffffffffffffffffffffffffffffffffffffffff1663313ce5676040518163ffffffff1660e01b815260040160206040518083038186803b158015611c5657600080fd5b505afa158015611c6a573d6000803e3d6000fd5b505050506040513d601f19601f82011682018060405250810190611c8e9190612967565b60ff169050600081600a611ca29190612ac7565b8584611cae9190612098565b611cb89190612121565b9050809350505050919050565b600080fd5b600073ffffffffffffffffffffffffffffffffffffffff82169050919050565b6000611cf582611cca565b9050919050565b611d0581611cea565b8114611d1057600080fd5b50565b600081359050611d2281611cfc565b92915050565b600060208284031215611d3e57611d3d611cc5565b5b6000611d4c84828501611d13565b91505092915050565b611d5e81611cea565b82525050565b6000602082019050611d796000830184611d55565b92915050565b6000819050919050565b611d9281611d7f565b82525050565b6000602082019050611dad6000830184611d89565b92915050565b611dbc81611d7f565b8114611dc757600080fd5b50565b600081359050611dd981611db3565b92915050565b60008060408385031215611df657611df5611cc5565b5b6000611e0485828601611dca565b9250506020611e1585828601611dca565b9150509250929050565b600060a082019050611e346000830188611d89565b611e416020830187611d89565b611e4e6040830186611d89565b611e5b6060830185611d89565b611e686080830184611d55565b9695505050505050565b600082825260208201905092915050565b7f436f6c6c61746572616c697a65644c657665726167653a4e6f74204578697374600082015250565b6000611eb9602083611e72565b9150611ec482611e83565b602082019050919050565b60006020820190508181036000830152611ee881611eac565b9050919050565b7f436f6c6c61746572616c697a65644c657665726167653a526571204e6f74206160008201527f6363707465640000000000000000000000000000000000000000000000000000602082015250565b6000611f4b602683611e72565b9150611f5682611eef565b604082019050919050565b60006020820190508181036000830152611f7a81611f3e565b9050919050565b7f4e487b7100000000000000000000000000000000000000000000000000000000600052601160045260246000fd5b6000611fbb82611d7f565b9150611fc683611d7f565b9250827fffffffffffffffffffffffffffffffffffffffffffffffffffffffffffffffff03821115611ffb57611ffa611f81565b5b828201905092915050565b7f436f6c6c61746572616c697a65644c657665726167653a526571204e6f74206660008201527f696e616c697a6564000000000000000000000000000000000000000000000000602082015250565b6000612062602883611e72565b915061206d82612006565b604082019050919050565b6000602082019050818103600083015261209181612055565b9050919050565b60006120a382611d7f565b91506120ae83611d7f565b9250817fffffffffffffffffffffffffffffffffffffffffffffffffffffffffffffffff04831182151516156120e7576120e6611f81565b5b828202905092915050565b7f4e487b7100000000000000000000000000000000000000000000000000000000600052601260045260246000fd5b600061212c82611d7f565b915061213783611d7f565b925082612147576121466120f2565b5b828204905092915050565b60008151905061216181611db3565b92915050565b60006020828403121561217d5761217c611cc5565b5b600061218b84828501612152565b91505092915050565b60006040820190506121a96000830185611d55565b6121b66020830184611d55565b9392505050565b60006060820190506121d26000830186611d55565b6121df6020830185611d55565b6121ec6040830184611d89565b949350505050565b60008115159050919050565b612209816121f4565b811461221457600080fd5b50565b60008151905061222681612200565b92915050565b60006020828403121561224257612241611cc5565b5b600061225084828501612217565b91505092915050565b7f436f6c6c61746572616c697a65644c657665726167653a7472616e736665722060008201527f6572726f72000000000000000000000000000000000000000000000000000000602082015250565b60006122b5602583611e72565b91506122c082612259565b604082019050919050565b600060208201905081810360008301526122e4816122a8565b9050919050565b60006040820190506123006000830185611d55565b61230d6020830184611d89565b9392505050565b7f436f6c6c61746572616c697a65644c657665726167653a7472616e736665722060008201527f6572726f72320000000000000000000000000000000000000000000000000000602082015250565b6000612370602683611e72565b915061237b82612314565b604082019050919050565b6000602082019050818103600083015261239f81612363565b9050919050565b7f436f6c6c61746572616c697a65644c657665726167653a7472616e736665722060008201527f6572726f72330000000000000000000000000000000000000000000000000000602082015250565b6000612402602683611e72565b915061240d826123a6565b604082019050919050565b60006020820190508181036000830152612431816123f5565b9050919050565b600060608201905061244d6000830186611d89565b61245a6020830185611d89565b6124676040830184611d89565b949350505050565b7f436f6c6c61746572616c697a65644c657665726167653a7472616e736665722060008201527f6572726f72340000000000000000000000000000000000000000000000000000602082015250565b60006124cb602683611e72565b91506124d68261246f565b604082019050919050565b600060208201905081810360008301526124fa816124be565b9050919050565b7f436f6c6c61746572616c697a65644c657665726167653a7472616e736665722060008201527f6572726f72350000000000000000000000000000000000000000000000000000602082015250565b600061255d602683611e72565b915061256882612501565b604082019050919050565b6000602082019050818103600083015261258c81612550565b9050919050565b7f436f6c6c61746572616c697a65644c657665726167653a416c7265616479416360008201527f6365707465640000000000000000000000000000000000000000000000000000602082015250565b60006125ef602683611e72565b91506125fa82612593565b604082019050919050565b6000602082019050818103600083015261261e816125e2565b9050919050565b7f436f6c6c61746572616c697a65644c657665726167653a4c6f7720726571756560008201527f7374000000000000000000000000000000000000000000000000000000000000602082015250565b6000612681602283611e72565b915061268c82612625565b604082019050919050565b600060208201905081810360008301526126b081612674565b9050919050565b7f436f6c6c61746572616c697a65644c657665726167653a4d756c7469706c652060008201527f7265717565737473000000000000000000000000000000000000000000000000602082015250565b6000612713602883611e72565b915061271e826126b7565b604082019050919050565b6000602082019050818103600083015261274281612706565b9050919050565b600060408201905061275e6000830185611d89565b61276b6020830184611d89565b9392505050565b7f436f6c6c61746572616c697a65644c657665726167653a526571202066696e6160008201527f6c697a6564000000000000000000000000000000000000000000000000000000602082015250565b60006127ce602583611e72565b91506127d982612772565b604082019050919050565b600060208201905081810360008301526127fd816127c1565b9050919050565b60006060820190506128196000830186611d55565b6128266020830185611d89565b6128336040830184611d89565b949350505050565b600069ffffffffffffffffffff82169050919050565b61285a8161283b565b811461286557600080fd5b50565b60008151905061287781612851565b92915050565b6000819050919050565b6128908161287d565b811461289b57600080fd5b50565b6000815190506128ad81612887565b92915050565b600080600080600060a086880312156128cf576128ce611cc5565b5b60006128dd88828901612868565b95505060206128ee8882890161289e565b94505060406128ff88828901612152565b935050606061291088828901612152565b925050608061292188828901612868565b9150509295509295909350565b600060ff82169050919050565b6129448161292e565b811461294f57600080fd5b50565b6000815190506129618161293b565b92915050565b60006020828403121561297d5761297c611cc5565b5b600061298b84828501612952565b91505092915050565b60008160011c9050919050565b6000808291508390505b60018511156129eb578086048111156129c7576129c6611f81565b5b60018516156129d65780820291505b80810290506129e485612994565b94506129ab565b94509492505050565b600082612a045760019050612ac0565b81612a125760009050612ac0565b8160018114612a285760028114612a3257612a61565b6001915050612ac0565b60ff841115612a4457612a43611f81565b5b8360020a915084821115612a5b57612a5a611f81565b5b50612ac0565b5060208310610133831016604e8410600b8410161715612a965782820a905083811115612a9157612a90611f81565b5b612ac0565b612aa384848460016129a1565b92509050818404811115612aba57612ab9611f81565b5b81810290505b9392505050565b6000612ad282611d7f565b9150612add83611d7f565b9250612b0a7fffffffffffffffffffffffffffffffffffffffffffffffffffffffffffffffff84846129f4565b90509291505056fea2646970667358221220374337748da54790733892b04a176f96dd9331b49ec4a03062216a78d847a74764736f6c63430008080033",
  "devdoc": {
    "kind": "dev",
    "methods": {
      "acceptBorrowRequest(address)": {
        "params": {
          "borrower": "User has placed the request"
        }
      },
      "constructor": {
        "params": {
          "_monthlyRate": "Monthly rate the borrower must pay to the lender",
          "_oracle": "Datafeed used for conversion",
          "_tokenA": "Token used as collateral",
          "_tokenX": "Token used as stabled coin"
        }
      },
      "placeBorrowRequest(uint256,uint256)": {
        "params": {
          "amountTokenA": "Amount of token to use as a collateral",
          "period": "Time in seconds"
        }
      },
      "resolveRequest(address)": {
        "params": {
          "borrower": "User has placed the request"
        }
      }
    },
    "title": "CollateralizedLeverage contract",
    "version": 1
  },
  "userdoc": {
    "kind": "user",
    "methods": {
      "acceptBorrowRequest(address)": {
        "notice": "LENDER: Accepts a request and pay in stable coin the e1uivalent of the 50% of the collateral"
      },
      "payCurrentInterest()": {
        "notice": "BORROWER: Buy more time by paying current pending interests"
      },
      "placeBorrowRequest(uint256,uint256)": {
        "notice": "BORROWER: Place a borrow request"
      },
      "resolveRequest(address)": {
        "notice": "ANY: resolve the request depending on the borrower balance: - If has enough balance to pay to lender 50% of collateral + interest: collateral is returned to borrower - If not: collateral is sent to lender"
      },
      "retireRequest()": {
        "notice": "BORROWER: Requiest can be retired if has not been accepted "
      }
    },
    "notice": "KNown limitation: Only accepts one borrow request per userFunctions to update parameters, owner management, pausing mechanisms have not been addressed to keep this contract as simple as possibleThis contract uses timestamp for time measurement. This keeps this contract simple, but would be better to use blocknumber to measure timeTHis contract is not intended for production as it simplifies processes, requirements and unit test are not exhaustive",
    "version": 1
  },
  "storageLayout": {
    "storage": [
      {
        "astId": 735,
        "contract": "contracts/CollateralizedLeverage.sol:CollateralizedLeverage",
        "label": "tokenX",
        "offset": 0,
        "slot": "0",
        "type": "t_address"
      },
      {
        "astId": 737,
        "contract": "contracts/CollateralizedLeverage.sol:CollateralizedLeverage",
        "label": "tokenA",
        "offset": 0,
        "slot": "1",
        "type": "t_address"
      },
      {
        "astId": 739,
        "contract": "contracts/CollateralizedLeverage.sol:CollateralizedLeverage",
        "label": "oracle",
        "offset": 0,
        "slot": "2",
        "type": "t_address"
      },
      {
        "astId": 741,
        "contract": "contracts/CollateralizedLeverage.sol:CollateralizedLeverage",
        "label": "monthlyRate",
        "offset": 0,
        "slot": "3",
        "type": "t_uint256"
      },
      {
        "astId": 746,
        "contract": "contracts/CollateralizedLeverage.sol:CollateralizedLeverage",
        "label": "ledger",
        "offset": 0,
        "slot": "4",
        "type": "t_mapping(t_address,t_struct(LedgerEntry)733_storage)"
      }
    ],
    "types": {
      "t_address": {
        "encoding": "inplace",
        "label": "address",
        "numberOfBytes": "20"
      },
      "t_mapping(t_address,t_struct(LedgerEntry)733_storage)": {
        "encoding": "mapping",
        "key": "t_address",
        "label": "mapping(address => struct CollateralizedLeverage.LedgerEntry)",
        "numberOfBytes": "32",
        "value": "t_struct(LedgerEntry)733_storage"
      },
      "t_struct(LedgerEntry)733_storage": {
        "encoding": "inplace",
        "label": "struct CollateralizedLeverage.LedgerEntry",
        "members": [
          {
            "astId": 724,
            "contract": "contracts/CollateralizedLeverage.sol:CollateralizedLeverage",
            "label": "amountTokenA",
            "offset": 0,
            "slot": "0",
            "type": "t_uint256"
          },
          {
            "astId": 726,
            "contract": "contracts/CollateralizedLeverage.sol:CollateralizedLeverage",
            "label": "amountTokenX",
            "offset": 0,
            "slot": "1",
            "type": "t_uint256"
          },
          {
            "astId": 728,
            "contract": "contracts/CollateralizedLeverage.sol:CollateralizedLeverage",
            "label": "period",
            "offset": 0,
            "slot": "2",
            "type": "t_uint256"
          },
          {
            "astId": 730,
            "contract": "contracts/CollateralizedLeverage.sol:CollateralizedLeverage",
            "label": "timestamp",
            "offset": 0,
            "slot": "3",
            "type": "t_uint256"
          },
          {
            "astId": 732,
            "contract": "contracts/CollateralizedLeverage.sol:CollateralizedLeverage",
            "label": "lender",
            "offset": 0,
            "slot": "4",
            "type": "t_address"
          }
        ],
        "numberOfBytes": "160"
      },
      "t_uint256": {
        "encoding": "inplace",
        "label": "uint256",
        "numberOfBytes": "32"
      }
    }
  }
}