{
  "address": "0x02C8EdC9c4E4edf682a3E737383438B991756573",
  "abi": [
    {
      "inputs": [],
      "name": "answer",
      "outputs": [
        {
          "internalType": "int256",
          "name": "",
          "type": "int256"
        }
      ],
      "stateMutability": "view",
      "type": "function"
    },
    {
      "inputs": [],
      "name": "answeredInRound",
      "outputs": [
        {
          "internalType": "uint80",
          "name": "",
          "type": "uint80"
        }
      ],
      "stateMutability": "view",
      "type": "function"
    },
    {
      "inputs": [],
      "name": "decimals",
      "outputs": [
        {
          "internalType": "uint8",
          "name": "",
          "type": "uint8"
        }
      ],
      "stateMutability": "view",
      "type": "function"
    },
    {
      "inputs": [],
      "name": "description",
      "outputs": [
        {
          "internalType": "string",
          "name": "",
          "type": "string"
        }
      ],
      "stateMutability": "view",
      "type": "function"
    },
    {
      "inputs": [],
      "name": "getBlockInfo",
      "outputs": [
        {
          "internalType": "bytes32",
          "name": "blockHash",
          "type": "bytes32"
        },
        {
          "internalType": "uint256",
          "name": "chainID",
          "type": "uint256"
        },
        {
          "internalType": "address",
          "name": "coinbase",
          "type": "address"
        },
        {
          "internalType": "uint256",
          "name": "gaslimit",
          "type": "uint256"
        },
        {
          "internalType": "uint256",
          "name": "blockNumber",
          "type": "uint256"
        },
        {
          "internalType": "uint256",
          "name": "blockTimestamp",
          "type": "uint256"
        }
      ],
      "stateMutability": "view",
      "type": "function"
    },
    {
      "inputs": [
        {
          "internalType": "uint80",
          "name": "_roundId",
          "type": "uint80"
        }
      ],
      "name": "getRoundData",
      "outputs": [
        {
          "internalType": "uint80",
          "name": "roundId",
          "type": "uint80"
        },
        {
          "internalType": "int256",
          "name": "answer",
          "type": "int256"
        },
        {
          "internalType": "uint256",
          "name": "startedAt",
          "type": "uint256"
        },
        {
          "internalType": "uint256",
          "name": "updatedAt",
          "type": "uint256"
        },
        {
          "internalType": "uint80",
          "name": "answeredInRound",
          "type": "uint80"
        }
      ],
      "stateMutability": "view",
      "type": "function"
    },
    {
      "inputs": [],
      "name": "initialPrice",
      "outputs": [
        {
          "internalType": "uint256",
          "name": "",
          "type": "uint256"
        }
      ],
      "stateMutability": "view",
      "type": "function"
    },
    {
      "inputs": [],
      "name": "latestRoundData",
      "outputs": [
        {
          "internalType": "uint80",
          "name": "_roundId",
          "type": "uint80"
        },
        {
          "internalType": "int256",
          "name": "_answer",
          "type": "int256"
        },
        {
          "internalType": "uint256",
          "name": "_startedAt",
          "type": "uint256"
        },
        {
          "internalType": "uint256",
          "name": "_updatedAt",
          "type": "uint256"
        },
        {
          "internalType": "uint80",
          "name": "_answeredInRound",
          "type": "uint80"
        }
      ],
      "stateMutability": "view",
      "type": "function"
    },
    {
      "inputs": [],
      "name": "roundId",
      "outputs": [
        {
          "internalType": "uint80",
          "name": "",
          "type": "uint80"
        }
      ],
      "stateMutability": "view",
      "type": "function"
    },
    {
      "inputs": [
        {
          "internalType": "uint80",
          "name": "_roundId",
          "type": "uint80"
        },
        {
          "internalType": "int256",
          "name": "_answer",
          "type": "int256"
        },
        {
          "internalType": "uint256",
          "name": "_updatedAt",
          "type": "uint256"
        }
      ],
      "name": "setOracleParameters",
      "outputs": [],
      "stateMutability": "nonpayable",
      "type": "function"
    },
    {
      "inputs": [],
      "name": "startedAt",
      "outputs": [
        {
          "internalType": "uint256",
          "name": "",
          "type": "uint256"
        }
      ],
      "stateMutability": "view",
      "type": "function"
    },
    {
      "inputs": [],
      "name": "updatedAt",
      "outputs": [
        {
          "internalType": "uint256",
          "name": "",
          "type": "uint256"
        }
      ],
      "stateMutability": "view",
      "type": "function"
    },
    {
      "inputs": [],
      "name": "version",
      "outputs": [
        {
          "internalType": "uint256",
          "name": "",
          "type": "uint256"
        }
      ],
      "stateMutability": "view",
      "type": "function"
    }
  ],
  "transactionHash": "0xef4e3f5fd68aac1fd1d5ae5565fcacbd5d345b97a8420119fa32b38e2d1c7412",
  "args": [],
  "numDeployments": 1,
  "solcInputHash": "b79098a4b45b51390094a65240cdbd38",
  "bytecode": "0x608060405261019060005534801561001657600080fd5b50610913806100266000396000f3fe608060405234801561001057600080fd5b50600436106100ce5760003560e01c806385bb7d691161008c578063c22c249911610066578063c22c2499146101fc578063cbb22cb41461021a578063f21f537d14610236578063feaf968c14610254576100ce565b806385bb7d691461018c5780638cd221c9146101aa5780639a6fc8f5146101c8576100ce565b8062819439146100d35780631d0806ae146100f6578063313ce5671461011457806354fd4d50146101325780637284e416146101505780637519ab501461016e575b600080fd5b6100db610276565b6040516100ed9695949392919061050d565b60405180910390f35b6100fe61029a565b60405161010b919061056e565b60405180910390f35b61011c6102a0565b60405161012991906105a5565b60405180910390f35b61013a6102a9565b604051610147919061056e565b60405180910390f35b6101586102b2565b6040516101659190610659565b60405180910390f35b6101766102ef565b604051610183919061056e565b60405180910390f35b6101946102f5565b6040516101a19190610694565b60405180910390f35b6101b26102fb565b6040516101bf91906106d4565b60405180910390f35b6101e260048036038101906101dd9190610720565b610317565b6040516101f395949392919061074d565b60405180910390f35b61020461033a565b60405161021191906106d4565b60405180910390f35b610234600480360381019061022f91906107f8565b610356565b005b61023e610440565b60405161024b919061056e565b60405180910390f35b61025c610446565b60405161026d95949392919061074d565b60405180910390f35b60008060008060008043404641454342955095509550955095509550909192939495565b60005481565b60006012905090565b60006001905090565b60606040518060400160405280601a81526020017f4d6f636b20416772656761746f7220666f722074657374696e67000000000000815250905090565b60045481565b60025481565b600160009054906101000a900469ffffffffffffffffffff1681565b6000806000806000610327610446565b9450945094509450945091939590929450565b600560009054906101000a900469ffffffffffffffffffff1681565b600160009054906101000a900469ffffffffffffffffffff1669ffffffffffffffffffff168369ffffffffffffffffffff16116103c8576040517f08c379a00000000000000000000000000000000000000000000000000000000081526004016103bf906108bd565b60405180910390fd5b82600160006101000a81548169ffffffffffffffffffff021916908369ffffffffffffffffffff160217905550816002819055506103e860038190555080600481905550612710600560006101000a81548169ffffffffffffffffffff021916908369ffffffffffffffffffff160217905550505050565b60035481565b6000806000806000600160009054906101000a900469ffffffffffffffffffff16600254600354600454600560009054906101000a900469ffffffffffffffffffff16945094509450945094509091929394565b6000819050919050565b6104ad8161049a565b82525050565b6000819050919050565b6104c6816104b3565b82525050565b600073ffffffffffffffffffffffffffffffffffffffff82169050919050565b60006104f7826104cc565b9050919050565b610507816104ec565b82525050565b600060c08201905061052260008301896104a4565b61052f60208301886104bd565b61053c60408301876104fe565b61054960608301866104bd565b61055660808301856104bd565b61056360a08301846104bd565b979650505050505050565b600060208201905061058360008301846104bd565b92915050565b600060ff82169050919050565b61059f81610589565b82525050565b60006020820190506105ba6000830184610596565b92915050565b600081519050919050565b600082825260208201905092915050565b60005b838110156105fa5780820151818401526020810190506105df565b83811115610609576000848401525b50505050565b6000601f19601f8301169050919050565b600061062b826105c0565b61063581856105cb565b93506106458185602086016105dc565b61064e8161060f565b840191505092915050565b600060208201905081810360008301526106738184610620565b905092915050565b6000819050919050565b61068e8161067b565b82525050565b60006020820190506106a96000830184610685565b92915050565b600069ffffffffffffffffffff82169050919050565b6106ce816106af565b82525050565b60006020820190506106e960008301846106c5565b92915050565b600080fd5b6106fd816106af565b811461070857600080fd5b50565b60008135905061071a816106f4565b92915050565b600060208284031215610736576107356106ef565b5b60006107448482850161070b565b91505092915050565b600060a08201905061076260008301886106c5565b61076f6020830187610685565b61077c60408301866104bd565b61078960608301856104bd565b61079660808301846106c5565b9695505050505050565b6107a98161067b565b81146107b457600080fd5b50565b6000813590506107c6816107a0565b92915050565b6107d5816104b3565b81146107e057600080fd5b50565b6000813590506107f2816107cc565b92915050565b600080600060608486031215610811576108106106ef565b5b600061081f8682870161070b565b9350506020610830868287016107b7565b9250506040610841868287016107e3565b9150509250925092565b7f4d4f434b202d204e657720726f756e64206d757374206265206772656174657260008201527f207468616e2070726576696f7573000000000000000000000000000000000000602082015250565b60006108a7602e836105cb565b91506108b28261084b565b604082019050919050565b600060208201905081810360008301526108d68161089a565b905091905056fea2646970667358221220ba3d16284074a04e09969f3c37634fcc226a8159b9acfc07df8bd39e389f81f364736f6c63430008080033",
  "devdoc": {
    "kind": "dev",
    "methods": {},
    "version": 1
  },
  "userdoc": {
    "kind": "user",
    "methods": {},
    "version": 1
  },
  "storageLayout": {
    "storage": [
      {
        "astId": 698,
        "contract": "contracts/Mock/MockAgregatorV3.sol:MockAgregatorV3",
        "label": "initialPrice",
        "offset": 0,
        "slot": "0",
        "type": "t_uint256"
      },
      {
        "astId": 718,
        "contract": "contracts/Mock/MockAgregatorV3.sol:MockAgregatorV3",
        "label": "roundId",
        "offset": 0,
        "slot": "1",
        "type": "t_uint80"
      },
      {
        "astId": 720,
        "contract": "contracts/Mock/MockAgregatorV3.sol:MockAgregatorV3",
        "label": "answer",
        "offset": 0,
        "slot": "2",
        "type": "t_int256"
      },
      {
        "astId": 722,
        "contract": "contracts/Mock/MockAgregatorV3.sol:MockAgregatorV3",
        "label": "startedAt",
        "offset": 0,
        "slot": "3",
        "type": "t_uint256"
      },
      {
        "astId": 724,
        "contract": "contracts/Mock/MockAgregatorV3.sol:MockAgregatorV3",
        "label": "updatedAt",
        "offset": 0,
        "slot": "4",
        "type": "t_uint256"
      },
      {
        "astId": 726,
        "contract": "contracts/Mock/MockAgregatorV3.sol:MockAgregatorV3",
        "label": "answeredInRound",
        "offset": 0,
        "slot": "5",
        "type": "t_uint80"
      }
    ],
    "types": {
      "t_int256": {
        "encoding": "inplace",
        "label": "int256",
        "numberOfBytes": "32"
      },
      "t_uint256": {
        "encoding": "inplace",
        "label": "uint256",
        "numberOfBytes": "32"
      },
      "t_uint80": {
        "encoding": "inplace",
        "label": "uint80",
        "numberOfBytes": "10"
      }
    }
  }
}